:100000000C9462000C948A000C948A000C948A0070
:100010000C948A000C948A000C948A000C948A0038
:100020000C948A000C948A000C948A000C948A0028
:100030000C948A000C948A000C948A000C948A0018
:100040000C9490070C948A000C948A000C948A00FB
:100050000C948A000C948A000C948A000C948A00F8
:100060000C94DA070C948A0000000000230026009C
:10007000290000000000240027002A0000000000E2
:10008000250028002B0004040404040404040202D4
:100090000202020203030303030301020408102007
:1000A0004080010204081020010204081020000012
:1000B0000008000201000003040700000000000027
:1000C0000000F90811241FBECFEFD8E0DEBFCDBF7E
:1000D00011E0A0E0B1E0EEE4F6E102C005900D927F
:1000E000A638B107D9F722E0A6E8B1E001C01D9219
:1000F000AC36B207E1F710E0C2E6D0E004C02197C9
:10010000FE010E941A0BC136D107C9F70E943D09B2
:100110000C94250B0C94000008950895AF92BF92A3
:10012000CF92DF92EF92FF920F931F93CF93DF93C3
:100130006C017B018B01040F151FEB015E01AE18F2
:10014000BF08C017D10759F06991D601ED91FC9114
:100150000190F081E02DC6010995892B79F7C50141
:10016000DF91CF911F910F91FF90EF90DF90CF9093
:10017000BF90AF90089590E0FC01E255FF4F2491AD
:10018000FC01E656FF4F3491FC01EA57FF4FE49122
:10019000EE23C9F0222339F0233001F1A8F42130F5
:1001A00019F1223029F1F0E0EE0FFF1FE458FF4F64
:1001B000A591B4918FB7F894EC91611126C0309558
:1001C0003E233C938FBF08952730A9F02830C9F013
:1001D000243049F7809180008F7D03C0809180009A
:1001E0008F7780938000DFCF84B58F7784BDDBCF9E
:1001F00084B58F7DFBCF8091B0008F778093B00066
:10020000D2CF8091B0008F7DF9CF3E2BDACFCF9344
:10021000DF9390E0FC01E656FF4F24918A579F4FF1
:10022000FC0184918823C9F090E0880F991FFC019C
:10023000EE58FF4FA591B491FC01E458FF4FC591D2
:10024000D49161110DC09FB7F8948C9120958223B1
:100250008C938881282328839FBFDF91CF910895B5
:10026000623051F49FB7F8943C91822F809583239C
:100270008C93E8812E2BEFCF8FB7F894EC912E2B37
:100280002C938FBFEACF3FB7F89480913D029091B5
:100290003E02A0913F02B091400226B5A89B05C046
:1002A0002F3F19F00196A11DB11D3FBFBA2FA92FF5
:1002B000982F8827BC01CD01620F711D811D911DF2
:1002C00042E0660F771F881F991F4A95D1F708955E
:1002D0008F929F92AF92BF92CF92DF92EF92FF9256
:1002E0004B015C010E9443016B017C010E944301B0
:1002F0006C197D098E099F09683E7340810591053F
:10030000A8F321E0821A9108A108B10888EEC80E6E
:1003100083E0D81EE11CF11C81149104A104B104F6
:1003200029F7FF90EF90DF90CF90BF90AF909F9014
:100330008F90089508952091C701260F3327331F0A
:1003400021323105ECF420911002FC0190E080E0B4
:10035000243069F082E00895A091C7012191AC0199
:1003600049555E4FA40FB52FB11D2C9301968617EA
:1003700098F38091C701680F6093C70180E00895EA
:1003800081E008951092100281E080930F02109294
:10039000EA0161E082E10E94BB0061E083E10E942A
:1003A000BB00E9EBF0E080818E7F808380818D7FD0
:1003B000808388E48093B80085E48093BC0008952E
:1003C000CF93DF9391E09093A6018823B9F0C09179
:1003D000B800D091BA008091BC008A7B8093BC00A9
:1003E00060E082E10E94BB0060E083E10E94BB000C
:1003F0000E94C201D093BA00C093B800DF91CF91A0
:1004000008950895E091480280914702E81730F47A
:10041000F0E0EA57FE4F808190E008958FEF9FEF64
:10042000089590914802809147022FEF3FEF98176F
:1004300048F4E92FF0E0EA57FE4F208130E09F5F5B
:1004400090934802C9010895809147029091480213
:10045000891B990B0895CF92DF92EF92FF920F9331
:100460001F93CF93DF937C01CB018A012091160269
:10047000222389F0EB016B01C40ED51ECC15DD05DE
:1004800069F06991D701ED91FC910190F081E02D27
:10049000C7010995F3CF642F0E949B01C801DF912A
:1004A000CF911F910F91FF90EF90DF90CF90089523
:1004B000CF93DF931F92CDB7DEB7698320911602E9
:1004C0002223F9F020914502203258F021E030E05B
:1004D000FC013383228390E080E00F90DF91CF9185
:1004E000089580914602E82FF0E0E95EFD4F998182
:1004F00090838F5F809346028093450281E090E075
:10050000ECCF61E0CE0101960E949B01F7CFCF9224
:10051000DF92EF92FF920F931F93CF93DF93FC0133
:10052000C48121E020931602C09337021092460244
:10053000109245028385682B89E492E00E9458025C
:10054000D0914502D13208F092C00E9443016B0164
:100550007C0180911002811165C082E080931002BD
:1005600081E080930F028FEF80930E0210920D02B4
:10057000D0930C02A7E1B2E0ECEEF1E080E0D813FA
:1005800085C01092EB018091EB01CC0FC82BC0937A
:10059000EB018091EA01813009F07CC01092EA0100
:1005A0000E9443016B017C018091EB018093BB00B1
:1005B0008091120290911302A0911402B091150241
:1005C000892B8A2B8B2B99F00E94430100911202F8
:1005D0001091130220911402309115026C197D09BB
:1005E0008E099F090617170728073907E0F1809140
:1005F000BC0083FDD9CF85EC8093BC000E944301F1
:100600006B017C0180911002823009F445C0809119
:100610000E028F3F61F180910E02803241F1809194
:100620000E0225C08091120290911302A091140233
:10063000B0911502892B8A2B8B2B09F48ACF0E944B
:100640004301009112021091130220911402309183
:1006500015026C197D098E099F09061717072807CF
:10066000390708F076CF809111020E94E0011092C4
:1006700046021092450210921602DF91CF911F910F
:100680000F91FF90EF90DF90CF9008959D919193FF
:100690008F5F75CF85EEB0CF8091120290911302DB
:1006A000A0911402B0911502892B8A2B8B2B09F48F
:1006B000A9CF0E94430100911202109113022091D0
:1006C0001402309115026C197D098E099F090617D5
:1006D00017072807390708F095CFC5CF90E080E0CD
:1006E0000895CF92DF92EF92FF920F931F93CF93D3
:1006F000DF93EC017A016901E881F9810190F081D1
:10070000E02D0995E881F9810084F185E02D9801BB
:10071000A601B701CE01DF91CF911F910F91FF90FC
:10072000EF90DF90CF9009946F927F928F929F927B
:10073000AF92BF92CF92DF92EF92FF920F931F93EF
:10074000CF93DF93CDB7DEB7AC970FB6F894DEBF8B
:100750000FBECDBFDC011696ED91FC91319609F4E8
:1007600080C059013A016B018C01FE0131964F01A5
:1007700088E2DF011D928A95E9F7D801ED91FC919D
:100780000488F589E02DB401C80109957C01892B05
:1007900009F051C01AA619A61CA61BA6D801ED91F6
:1007A000FC910688F789E02D9E01255D3F4FAE0143
:1007B000475D5F4FB401C80109957C01892BD9F5CC
:1007C000A114B10439F088E2F401D50101900D9231
:1007D0008A95E1F709A51AA5C114D10479F0612F12
:1007E000772767FD7A95072E000C880B990B0E94DE
:1007F000940AF60160837183828393836114710488
:1008000089F08CA5682F782F770F770B072E000CB7
:10081000880B990B0E94940AD3016D937D938D935D
:100820009C931397012B39F48BA59CA5892B19F464
:1008300096E1E92EF12CC701AC960FB6F894DEBF15
:100840000FBECDBFDF91CF911F910F91FF90EF9021
:10085000DF90CF90BF90AF909F908F907F906F90E0
:10086000089587E1E82EF12CE6CF8F929F92AF9208
:10087000BF92CF92DF92EF92FF920F931F93CF938D
:10088000DF93EC018B016A017901E881F98102882B
:10089000F389E02D0995B82EB801685F7F4FE88194
:1008A000F9810288F389E02DCE010995982EB801CF
:1008B000605F7F4FE881F9810288F389E02DCE01E6
:1008C0000995A82EB801685E7F4FE881F9810288FA
:1008D000F389E02DCE010995882EB801605E7F4F27
:1008E000E881F9810288F389E02DCE0109959B2DDD
:1008F000990D9A0D980D891319C09A2D882DF6011E
:10090000918380839B2D892DF7019183808390E0D3
:1009100080E0DF91CF911F910F91FF90EF90DF90DA
:10092000CF90BF90AF909F908F90089585E190E019
:10093000F0CF47E050E080E0FB012191BF01042EA1
:1009400001C0220F0A94EAF7820F41505109A0F723
:1009500008953F924F925F926F927F928F929F92F3
:10096000AF92BF92CF92DF92EF92FF920F931F93BD
:10097000CF93DF93EC01162F7A0169010E944301A6
:100980004B015C01312C111139843601660C771C46
:10099000660C771C85E0681A71082701440C551C09
:1009A000440C551C85E0481A510810E000E060E056
:1009B00070E0CB012A813B814C815D81261737078E
:1009C000480759070CF10115110599F582E0E81661
:1009D000F1041CF0C2010197F1F70E94430168196C
:1009E00079098A099B09EA85F0E0EE0FFF1FE859B3
:1009F000FF4FA591B4912C910F5F1F4F3985232391
:100A0000231105C097FFD6CF6FEF7FEFCB01DF91AA
:100A1000CF911F910F91FF90EF90DF90CF90BF90FB
:100A2000AF909F908F907F906F905F904F903F908E
:100A3000089582E0C816D10484F2C301CCCFFC0132
:100A4000828590E00895FC01818590E00895CF9221
:100A5000DF92EF92FF920F931F93CF93DF93EC01FE
:100A60007A016901E881F9810190F081E02D099511
:100A7000E881F9810480F581E02D9801A601B70194
:100A8000CE01DF91CF911F910F91FF90EF90DF90FA
:100A9000CF900994CF92DF92EF92FF920F931F9322
:100AA000CF93DF93CDB7DEB728970FB6F894DEBFAC
:100AB0000FBECDBFDC011696ED91FC91319609F485
:100AC00040C08A017B0119821A821B821C821D820E
:100AD0001E821F821886DC01ED91FC910084F18555
:100AE000E02DAE014B5F5F4FBE016F5F7F4F0995F9
:100AF0006C01892BB1F4E114F10441F069817A8130
:100B00008B819C810E945C0AF701608301151105AD
:100B100041F06D817E818F8198850E945C0AD801A9
:100B20006C93C60128960FB6F894DEBF0FBECDBFFA
:100B3000DF91CF911F910F91FF90EF90DF90CF90B9
:100B4000089587E1C82ED12CECCF262F2D7F29F4D4
:100B5000FC01608790E080E0089588E190E00895CE
:100B6000DC0117967C936E931697FB01E656FF4FB8
:100B7000E4911996EC9319976A577F4FFB016491A2
:100B80001A966C9308958F929F92AF92BF920F9393
:100B90001F93CF93DF93CDB7DEB7A1970FB6F8942D
:100BA000DEBF0FBECDBF19A2423008F44AE08E016D
:100BB0000F5D1F4F842E912CB12CA12CA501940107
:100BC0000E94F80AE62FB901CA01EA3044F5E05D57
:100BD000D801EE938D01232B242B252B79F790E060
:100BE00080E0109769F0FD0101900020E9F731974E
:100BF000AF014A1B5B0BBD0185E592E00E948E00B0
:100C0000A1960FB6F894DEBF0FBECDBFDF91CF9196
:100C10001F910F91BF90AF909F908F900895E95CC6
:100C2000D7CFFC0101900020E9F73197AF01481BB5
:100C3000590BBC0185E592E00C948E000F931F9335
:100C4000CF938C01C62F0E9487026C2F6460C8016D
:100C50000E9487026C2F6B7FC8010E94870283EC81
:100C600090E00197F1F7CF911F910F9108950F93A5
:100C70001F93CF93DF938C01D62FC42F607F642BFB
:100C80000E941E0680E1D89FB00111246C2BC80180
:100C9000DF91CF911F910F910C941E0641E00E94AD
:100CA000370681E090E00895CF92DF92EF92FF92B5
:100CB0006B017C0141E06DE285E592E00E94370620
:100CC00066277727CB016C197D098E099F094AE0B9
:100CD0000E94C3050196FF90EF90DF90CF9008959A
:100CE000CF93DF93CDB7DEB728970FB6F894DEBF6A
:100CF0000FBECDBF98E0E0E0F1E0DE01119601907B
:100D00000D929A95E1F790915E02981708F48FEF93
:100D100090E0880F991F21E030E02C0F3D1F820FDB
:100D2000931FFC016081606840E085E592E02896B1
:100D30000FB6F894DEBF0FBECDBFDF91CF910C94FC
:100D400037060E94200B85ED8093BC008091120233
:100D500090911302A0911402B09115020796A11D63
:100D6000B11D23E0B695A795979587952A95D1F75C
:100D70002091BC0024FD03C0109210020895409100
:100D80001202509113026091140270911502452BCA
:100D9000462B472B69F30097A105B10541F025E3E8
:100DA0002A95F1F700000197A109B109E1CF8091DF
:100DB00011020C94E001EF92FF920F931F93CF93D7
:100DC000DF93EC018B0188E2FB0111928A95E9F730
:100DD00061E08E810E94070160E08E810E94BB006D
:100DE00064E170E080E090E00E94680161E08E8143
:100DF0000E94BB0068858E810E9407018FE590E00C
:100E00000197F1F7E881F9810088F189E02D26E06A
:100E100030E04AE050E060E0CE0109956E317105A6
:100E2000810591056CF4982F872F762F66276061D6
:100E3000CB01DF91CF911F910F91FF90EF9008951B
:100E4000E881F9810088F189E02D26E030E04AE070
:100E500050E061E0CE0109957801F8E2EF0EF11C57
:100E6000623371058105910534F4982F872F762F11
:100E700066276161DDCFE881F9810088F189E02D85
:100E800026E030E04AE050E060E0CE0109956831AC
:100E900071058105910534F4982F872F762F6627E9
:100EA0006261C6CFE881F9810088F189E02D26E0F2
:100EB00030E04AE050E061E0CE0109956B30710509
:100EC0008105910534F4982F872F762F662763616B
:100ED000AFCF21E069327105810591050CF420E066
:100EE000F80121938F01EE16FF0629F6E881F981BA
:100EF0000088F189E02D26E030E04AE050E060E033
:100F0000CE010995683171058105910534F4982F5A
:100F1000872F762F662764618BCF70E060E088CFE3
:100F20001F920F920FB60F9211242F933F938F931E
:100F30009F93AF93BF938091390290913A02A09111
:100F40003B02B0913C023091380223E0230F2D3751
:100F500058F50196A11DB11D2093380280933902E6
:100F600090933A02A0933B02B0933C0280913D02E1
:100F700090913E02A0913F02B09140020196A11DC6
:100F8000B11D80933D0290933E02A0933F02B09327
:100F90004002BF91AF919F918F913F912F910F9000
:100FA0000FBE0F901F90189526E8230F0296A11DE3
:100FB000B11DD2CF1F920F920FB60F9211242F9313
:100FC0003F934F935F936F937F938F939F93AF93D1
:100FD000BF93EF93FF938091B900887F803609F427
:100FE0004AC0F0F5883209F4A7C018F5803109F439
:100FF0009BC0B8F4882309F4F9C0883009F494C080
:10100000FF91EF91BF91AF919F918F917F916F91E0
:101010005F914F913F912F910F900FBE0F901F90B6
:101020001895883109F488C0803251F780930E02F8
:1010300014C0803409F49DC040F48033B9F3883380
:10104000F9F680930E0285ECB0C0803509F485C0B6
:10105000883509F496C0883499F60E94A306D0CF4B
:10106000883909F48CC038F5883729F050F488366F
:1010700011F0803729F683E0809310021092E90185
:1010800057C0883809F47BC0803919F0803809F0DE
:10109000B7CF8091E901803208F071C0E091E90199
:1010A00081E08E0F8093E9018091BB00F0E0E7536F
:1010B000FE4F80833DC0803B39F0E0F4803A09F474
:1010C00079C0883A09F09CCF84E080931002109296
:1010D000C8011092C701E0914302F09144020995C2
:1010E0008091C70181110FC081E08093C7011092E8
:1010F000A70109C0803C09F4A6CF883C09F4A3CF1E
:10110000883B09F07DCFE091C80181E08E0F80938C
:10111000C801F0E0E955FE4F80818093BB009091BB
:10112000C8018091C70129C08091EB018093BB0069
:1011300085EC8093BC0064CF90910D0280910C02ED
:10114000981758F5E0910D0281E08E0F80930D0203
:10115000F0E0E451FE4F8081E9CFE0910D0281E0A3
:101160008E0F80930D028091BB00F0E0E451FE4FA2
:10117000808390910D0280910C029817C8F285E847
:10118000D8CFE0910D0281E08E0F80930D02809107
:10119000BB00F0E0E451FE4F808380910F0281118B
:1011A0005CCF81E08093EA0184EA8093BC001092D6
:1011B000100226CF85EC8093BC0010921002809123
:1011C000E901803230F4E091E901F0E0E753FE4FAD
:1011D00010826091E90170E0E0914102F0914202D9
:1011E00089EC91E009951092E9010ACF10920E0264
:1011F00034CFCF93DF93E9E4F2E01382128288EEDA
:1012000093E0A0E0B0E084839583A683B7838CE06D
:1012100091E091838083C1E6D2E08AE291E09983F4
:10122000888380E291EAA7E0B0E08A839B83AC8365
:10123000BD838FEF9FEF9F838E83188689878A8770
:1012400062E070E0CE010E94B00586E491E09983EF
:101250008883E5E5F2E0138212828EE191E09183CA
:10126000808387E2848380E1808782E081871286A1
:1012700088E08387DF91CF910895CF93DF9300D0EB
:10128000CDB7DEB7789484B5826084BD84B58160C3
:1012900084BD85B5826085BD85B5816085BD809141
:1012A0006E00816080936E001092810080918100B9
:1012B00082608093810080918100816080938100B1
:1012C000809180008160809380008091B100846073
:1012D0008093B1008091B00081608093B0008091D4
:1012E0007A00846080937A0080917A008260809393
:1012F0007A0080917A00816080937A0080917A00F0
:10130000806880937A001092C10010924802109277
:10131000470210924602109245020E94C2018CE8D8
:1013200090E090934402809343028DE890E0909384
:1013300042028093410210925A0280915E028230F2
:1013400018F098E090935A0290915F02992339F037
:10135000813029F480915A02846080935A0262E3BA
:1013600070E080E090E00E9468016091600285E595
:1013700092E00E94870268EE73E080E090E00E94B5
:10138000680160E385E592E00E941E060BE416E426
:10139000C8010197F1F760E385E592E00E941E061F
:1013A000C8010197F1F760E385E592E00E941E060F
:1013B00083E592E00197F1F760E285E592E00E9413
:1013C0001E0660915A02606240E085E592E00E944C
:1013D000370684E080935B0240E06CE085E592E0B4
:1013E0000E94370640E061E085E592E00E94370602
:1013F0000BE31FE1C8010197F1F782E080935C02E3
:1014000040E066E085E592E00E94370640E062E059
:1014100085E592E00E943706C8010197F1F788E060
:101420008093600260E085E592E00E94870200E020
:1014300010E01A82198230E020E0AE014F5F5F4F6A
:10144000BE016E5F7F4F81E692E00E944A05892BC4
:1014500081F08EE591E00E94110668EE73E080E075
:1014600090E00E9468010115110519F30E94000027
:10147000E0CF80E00E94700684E691E00E941106B1
:101480006A8170E090E080E04AE00E94C30581E755
:1014900091E00E94110681E00E94700684E791E0CD
:1014A0000E941106698170E090E080E04AE00E94AD
:1014B000C30583E891E0CFCF0E94630A6894B1111D
:1014C0000C94F20A08950E94D70A88F09F5798F06A
:1014D000B92F9927B751B0F0E1F0660F771F881F39
:1014E000991F1AF0BA95C9F714C0B13091F00E9453
:1014F000F10AB1E008950C94F10A672F782F88273C
:10150000B85F39F0B93FCCF3869577956795B39579
:10151000D9F73EF490958095709561957F4F8F4FE8
:101520009F4F0895E89409C097FB3EF490958095ED
:10153000709561957F4F8F4F9F4F9923A9F0F92F99
:1015400096E9BB279395F695879577956795B79517
:10155000F111F8CFFAF4BB0F11F460FF1BC06F5FFD
:101560007F4F8F4F9F4F16C0882311F096E911C00F
:10157000772321F09EE8872F762F05C0662371F030
:1015800096E8862F70E060E02AF09A95660F771F44
:10159000881FDAF7880F9695879597F9089557FD74
:1015A0009058440F551F59F05F3F71F04795880FD1
:1015B00097FB991F61F09F3F79F087950895121668
:1015C00013061406551FF2CF4695F1DF08C0161614
:1015D00017061806991FF1CF8695710561050894C5
:1015E0000895E894BB2766277727CB0197F90895DC
:1015F000A1E21A2EAA1BBB1BFD010DC0AA1FBB1F17
:10160000EE1FFF1FA217B307E407F50720F0A21B88
:10161000B30BE40BF50B661F771F881F991F1A94F5
:1016200069F760957095809590959B01AC01BD011F
:10163000CF010895EE0FFF1F0590F491E02D09945E
:0E16400081E090E0F8940C94250BF894FFCF15
:10164E0000004000140054000000000058022B025D
:10165E006E030102240211020202000000004E0677
:10166E008E006E039A0100000000B005A5054A0524
:10167E002705A106A10623051F05A9049904A106A5
:10168E00350400000000B005A5054A0527059403A2
:10169E00710323051F05A9049904DB063504657241
:1016AE00726F720054656D7065726174757261202F
:1016BE000043200057696C676F746E6F20202020E6
:0616CE002020004820006E
:00000001FF
